{
  "address": "0x2Fc61Db6104a0346cD591fEF8D435F5b8655D263",
  "abi": [
    {
      "anonymous": false,
      "inputs": [
        {
          "indexed": false,
          "internalType": "address",
          "name": "player",
          "type": "address"
        },
        {
          "indexed": false,
          "internalType": "uint256",
          "name": "score",
          "type": "uint256"
        }
      ],
      "name": "NewHighScore",
      "type": "event"
    },
    {
      "inputs": [],
      "name": "MAX_TOP_SCORES",
      "outputs": [
        {
          "internalType": "uint256",
          "name": "",
          "type": "uint256"
        }
      ],
      "stateMutability": "view",
      "type": "function"
    },
    {
      "inputs": [
        {
          "internalType": "address",
          "name": "player",
          "type": "address"
        }
      ],
      "name": "getHighScore",
      "outputs": [
        {
          "internalType": "uint256",
          "name": "",
          "type": "uint256"
        }
      ],
      "stateMutability": "view",
      "type": "function"
    },
    {
      "inputs": [],
      "name": "getTopScores",
      "outputs": [
        {
          "components": [
            {
              "internalType": "address",
              "name": "player",
              "type": "address"
            },
            {
              "internalType": "uint256",
              "name": "score",
              "type": "uint256"
            }
          ],
          "internalType": "struct GameScore.Score[]",
          "name": "",
          "type": "tuple[]"
        }
      ],
      "stateMutability": "view",
      "type": "function"
    },
    {
      "inputs": [
        {
          "internalType": "address",
          "name": "",
          "type": "address"
        }
      ],
      "name": "playerHighScores",
      "outputs": [
        {
          "internalType": "uint256",
          "name": "",
          "type": "uint256"
        }
      ],
      "stateMutability": "view",
      "type": "function"
    },
    {
      "inputs": [
        {
          "internalType": "uint256",
          "name": "score",
          "type": "uint256"
        }
      ],
      "name": "setHighScore",
      "outputs": [],
      "stateMutability": "nonpayable",
      "type": "function"
    },
    {
      "inputs": [
        {
          "internalType": "uint256",
          "name": "",
          "type": "uint256"
        }
      ],
      "name": "topScores",
      "outputs": [
        {
          "internalType": "address",
          "name": "player",
          "type": "address"
        },
        {
          "internalType": "uint256",
          "name": "score",
          "type": "uint256"
        }
      ],
      "stateMutability": "view",
      "type": "function"
    }
  ],
  "transactionHash": "0xc7dc7e5f06dd2f4f73f47ee064b769a3659cc9701468c672ba3f8ef342884c2a",
  "args": [],
  "numDeployments": 1,
  "solcInputHash": "4ea7502aa217cd196f4a3d2ef7ef67b5",
  "bytecode": "0x608060405234801561001057600080fd5b506105a2806100206000396000f3fe608060405234801561001057600080fd5b50600436106100625760003560e01c80635112711a1461006757806357171a481461009e5780638b4dc1c2146100d55780639271b997146100f5578063dbdd4eb21461010a578063ee5c4e5d14610112575b600080fd5b61007a610075366004610456565b610127565b604080516001600160a01b0390931683526020830191909152015b60405180910390f35b6100c76100ac36600461046f565b6001600160a01b031660009081526001602052604090205490565b604051908152602001610095565b6100c76100e336600461046f565b60016020526000908152604090205481565b610108610103366004610456565b61015f565b005b6100c7600a81565b61011a6101ce565b604051610095919061049f565b6000818154811061013757600080fd5b6000918252602090912060029091020180546001909101546001600160a01b03909116915082565b336000908152600160205260409020548111156101cb5733600081815260016020908152604091829020849055815192835282018390527fe265ae360c48dc3c258727b698cc5a994da69b0d32354166f39003a488919443910160405180910390a16101cb3382610243565b50565b60606000805480602002602001604051908101604052809291908181526020016000905b8282101561023a576000848152602090819020604080518082019091526002850290910180546001600160a01b031682526001908101548284015290835290920191016101f2565b50505050905090565b60008054905b6000548110156102995760008181548110610266576102666104f7565b90600052602060002090600202016001015483111561028757809150610299565b8061029181610523565b915050610249565b50600a81101561045157600054600a111561034357604080518082019091526001600160a01b038481168252602082018481526000805460018101825590805292517f290decd9548b62a8d60345a988386fc84ba6bc95484008f6362f93160ef3e563600290940293840180546001600160a01b0319169190931617909155517f290decd9548b62a8d60345a988386fc84ba6bc95484008f6362f93160ef3e56490910155505050565b60006103516001600a61053c565b90505b818111156103e457600061036960018361053c565b81548110610379576103796104f7565b90600052602060002090600202016000828154811061039a5761039a6104f7565b60009182526020909120825460029092020180546001600160a01b0319166001600160a01b03909216919091178155600191820154910155806103dc81610555565b915050610354565b506040518060400160405280846001600160a01b031681526020018381525060008281548110610416576104166104f7565b600091825260209182902083516002929092020180546001600160a01b0319166001600160a01b039092169190911781559101516001909101555b505050565b60006020828403121561046857600080fd5b5035919050565b60006020828403121561048157600080fd5b81356001600160a01b038116811461049857600080fd5b9392505050565b602080825282518282018190526000919060409081850190868401855b828110156104ea57815180516001600160a01b031685528601518685015292840192908501906001016104bc565b5091979650505050505050565b634e487b7160e01b600052603260045260246000fd5b634e487b7160e01b600052601160045260246000fd5b6000600182016105355761053561050d565b5060010190565b8181038181111561054f5761054f61050d565b92915050565b6000816105645761056461050d565b50600019019056fea2646970667358221220531d5053f65bec9ab8fc5a2d1b4cb1a31f4dba222e99cbd490f137c5e97ab59c64736f6c63430008140033",
  "devdoc": {
    "kind": "dev",
    "methods": {},
    "version": 1
  },
  "userdoc": {
    "kind": "user",
    "methods": {},
    "version": 1
  },
  "storageLayout": {
    "storage": [
      {
        "astId": 2947,
        "contract": "contracts/GameScore.sol:GameScore",
        "label": "topScores",
        "offset": 0,
        "slot": "0",
        "type": "t_array(t_struct(Score)2943_storage)dyn_storage"
      },
      {
        "astId": 2954,
        "contract": "contracts/GameScore.sol:GameScore",
        "label": "playerHighScores",
        "offset": 0,
        "slot": "1",
        "type": "t_mapping(t_address,t_uint256)"
      }
    ],
    "types": {
      "t_address": {
        "encoding": "inplace",
        "label": "address",
        "numberOfBytes": "20"
      },
      "t_array(t_struct(Score)2943_storage)dyn_storage": {
        "base": "t_struct(Score)2943_storage",
        "encoding": "dynamic_array",
        "label": "struct GameScore.Score[]",
        "numberOfBytes": "32"
      },
      "t_mapping(t_address,t_uint256)": {
        "encoding": "mapping",
        "key": "t_address",
        "label": "mapping(address => uint256)",
        "numberOfBytes": "32",
        "value": "t_uint256"
      },
      "t_struct(Score)2943_storage": {
        "encoding": "inplace",
        "label": "struct GameScore.Score",
        "members": [
          {
            "astId": 2940,
            "contract": "contracts/GameScore.sol:GameScore",
            "label": "player",
            "offset": 0,
            "slot": "0",
            "type": "t_address"
          },
          {
            "astId": 2942,
            "contract": "contracts/GameScore.sol:GameScore",
            "label": "score",
            "offset": 0,
            "slot": "1",
            "type": "t_uint256"
          }
        ],
        "numberOfBytes": "64"
      },
      "t_uint256": {
        "encoding": "inplace",
        "label": "uint256",
        "numberOfBytes": "32"
      }
    }
  }
}