{
  "address": "0x75B36BDC06d5580c0f38b16Ad69A06BddcFeA026",
  "abi": [
    {
      "inputs": [],
      "stateMutability": "nonpayable",
      "type": "constructor"
    },
    {
      "anonymous": false,
      "inputs": [
        {
          "indexed": true,
          "internalType": "address",
          "name": "sender",
          "type": "address"
        },
        {
          "indexed": false,
          "internalType": "uint256",
          "name": "amount",
          "type": "uint256"
        }
      ],
      "name": "EtherReceived",
      "type": "event"
    },
    {
      "anonymous": false,
      "inputs": [
        {
          "indexed": true,
          "internalType": "address",
          "name": "owner",
          "type": "address"
        },
        {
          "indexed": false,
          "internalType": "uint256",
          "name": "amount",
          "type": "uint256"
        }
      ],
      "name": "OwnerWithdraw",
      "type": "event"
    },
    {
      "inputs": [],
      "name": "cooldownPeriod",
      "outputs": [
        {
          "internalType": "uint256",
          "name": "",
          "type": "uint256"
        }
      ],
      "stateMutability": "view",
      "type": "function"
    },
    {
      "inputs": [
        {
          "internalType": "address payable",
          "name": "recipient",
          "type": "address"
        },
        {
          "internalType": "uint256",
          "name": "amount",
          "type": "uint256"
        }
      ],
      "name": "disburse",
      "outputs": [],
      "stateMutability": "nonpayable",
      "type": "function"
    },
    {
      "inputs": [
        {
          "internalType": "address",
          "name": "",
          "type": "address"
        }
      ],
      "name": "lastRequestTime",
      "outputs": [
        {
          "internalType": "uint256",
          "name": "",
          "type": "uint256"
        }
      ],
      "stateMutability": "view",
      "type": "function"
    },
    {
      "inputs": [],
      "name": "maxDisbursement",
      "outputs": [
        {
          "internalType": "uint256",
          "name": "",
          "type": "uint256"
        }
      ],
      "stateMutability": "view",
      "type": "function"
    },
    {
      "inputs": [],
      "name": "owner",
      "outputs": [
        {
          "internalType": "address",
          "name": "",
          "type": "address"
        }
      ],
      "stateMutability": "view",
      "type": "function"
    },
    {
      "inputs": [
        {
          "internalType": "uint256",
          "name": "newCooldownPeriod",
          "type": "uint256"
        }
      ],
      "name": "setCooldownPeriod",
      "outputs": [],
      "stateMutability": "nonpayable",
      "type": "function"
    },
    {
      "inputs": [
        {
          "internalType": "uint256",
          "name": "newMaxDisbursement",
          "type": "uint256"
        }
      ],
      "name": "setMaxDisbursement",
      "outputs": [],
      "stateMutability": "nonpayable",
      "type": "function"
    },
    {
      "inputs": [
        {
          "internalType": "address",
          "name": "newOwner",
          "type": "address"
        }
      ],
      "name": "transferOwnership",
      "outputs": [],
      "stateMutability": "nonpayable",
      "type": "function"
    },
    {
      "inputs": [],
      "name": "withdrawAll",
      "outputs": [],
      "stateMutability": "nonpayable",
      "type": "function"
    },
    {
      "stateMutability": "payable",
      "type": "receive"
    }
  ],
  "transactionHash": "0xc1277ffcde5235621ad0aa6f12ea16c9afc9c987ac16e9267d1ff8632b43fc13",
  "args": [],
  "numDeployments": 14,
  "solcInputHash": "ff9f23d7ac9ba77882506a9b480f605e",
  "bytecode": "0x60806040526102586001556801a055690d9db8000060025534801561002357600080fd5b50600080546001600160a01b03191633179055610812806100456000396000f3fe60806040526004361061008a5760003560e01c806380ea3de11161005957806380ea3de114610163578063853828b6146101835780638da5cb5b14610198578063e2543164146101d0578063f2fde38b146101e657600080fd5b806304646a49146100cb578063394f6181146100f45780635da0b2c6146101215780637f3bd56e1461014357600080fd5b366100c65760405134815233907f1e57e3bb474320be3d2c77138f75b7c3941292d647f5f9634e33a8e94e0e069b9060200160405180910390a2005b600080fd5b3480156100d757600080fd5b506100e160015481565b6040519081526020015b60405180910390f35b34801561010057600080fd5b506100e161010f366004610715565b60036020526000908152604090205481565b34801561012d57600080fd5b5061014161013c366004610739565b610206565b005b34801561014f57600080fd5b5061014161015e366004610752565b6102a1565b34801561016f57600080fd5b5061014161017e366004610739565b6104d4565b34801561018f57600080fd5b50610141610503565b3480156101a457600080fd5b506000546101b8906001600160a01b031681565b6040516001600160a01b0390911681526020016100eb565b3480156101dc57600080fd5b506100e160025481565b3480156101f257600080fd5b50610141610201366004610715565b61065b565b6000546001600160a01b031633146102395760405162461bcd60e51b81526004016102309061077e565b60405180910390fd5b6000811161029c5760405162461bcd60e51b815260206004820152602a60248201527f4d61782064697362757273656d656e74206d7573742062652067726561746572604482015269207468616e207a65726f60b01b6064820152608401610230565b600255565b6000546001600160a01b031633146102cb5760405162461bcd60e51b81526004016102309061077e565b6001600160a01b0382166103155760405162461bcd60e51b8152602060048201526011602482015270125b9d985b1a59081c9958da5c1a595b9d607a1b6044820152606401610230565b60008111801561032757506002548111155b6103645760405162461bcd60e51b815260206004820152600e60248201526d125b9d985b1a5908185b5bdd5b9d60921b6044820152606401610230565b804710156103b45760405162461bcd60e51b815260206004820152601d60248201527f496e73756666696369656e7420636f6e74726163742062616c616e63650000006044820152606401610230565b600154336000908152600360205260409020546103d191906107b5565b4210156104205760405162461bcd60e51b815260206004820152601f60248201527f436f6f6c646f776e20706572696f64206e6f74207965742065787069726564006044820152606401610230565b33600090815260036020526040808220429055516001600160a01b0384169083908381818185875af1925050503d8060008114610479576040519150601f19603f3d011682016040523d82523d6000602084013e61047e565b606091505b50509050806104cf5760405162461bcd60e51b815260206004820152601a60248201527f4661696c656420746f20646973627572736520726577617264730000000000006044820152606401610230565b505050565b6000546001600160a01b031633146104fe5760405162461bcd60e51b81526004016102309061077e565b600155565b6000546001600160a01b0316331461052d5760405162461bcd60e51b81526004016102309061077e565b47806105725760405162461bcd60e51b81526020600482015260146024820152734e6f2066756e647320746f20776974686472617760601b6044820152606401610230565b600080546040516001600160a01b039091169083908381818185875af1925050503d80600081146105bf576040519150601f19603f3d011682016040523d82523d6000602084013e6105c4565b606091505b50509050806106155760405162461bcd60e51b815260206004820152601860248201527f4661696c656420746f2077697468647261772066756e647300000000000000006044820152606401610230565b6000546040518381526001600160a01b03909116907f13c461eb29f5d65800bbef5a5b05a06ea13b8b2ef4b889ee170f149bc1c8f8bd9060200160405180910390a25050565b6000546001600160a01b031633146106855760405162461bcd60e51b81526004016102309061077e565b6001600160a01b0381166106db5760405162461bcd60e51b815260206004820181905260248201527f4e6577206f776e65722063616e6e6f74206265207a65726f20616464726573736044820152606401610230565b600080546001600160a01b0319166001600160a01b0392909216919091179055565b6001600160a01b038116811461071257600080fd5b50565b60006020828403121561072757600080fd5b8135610732816106fd565b9392505050565b60006020828403121561074b57600080fd5b5035919050565b6000806040838503121561076557600080fd5b8235610770816106fd565b946020939093013593505050565b60208082526017908201527f43616c6c6572206973206e6f7420746865206f776e6572000000000000000000604082015260600190565b808201808211156107d657634e487b7160e01b600052601160045260246000fd5b9291505056fea264697066735822122033568407f0d4252b3a2ad6c5dfd4e1105812d6e95069cac5292e3bce4907815464736f6c63430008140033",
  "devdoc": {
    "kind": "dev",
    "methods": {},
    "version": 1
  },
  "userdoc": {
    "kind": "user",
    "methods": {},
    "version": 1
  },
  "storageLayout": {
    "storage": [
      {
        "astId": 3,
        "contract": "contracts/MouchDrops.sol:MouchDrops",
        "label": "owner",
        "offset": 0,
        "slot": "0",
        "type": "t_address"
      },
      {
        "astId": 6,
        "contract": "contracts/MouchDrops.sol:MouchDrops",
        "label": "cooldownPeriod",
        "offset": 0,
        "slot": "1",
        "type": "t_uint256"
      },
      {
        "astId": 9,
        "contract": "contracts/MouchDrops.sol:MouchDrops",
        "label": "maxDisbursement",
        "offset": 0,
        "slot": "2",
        "type": "t_uint256"
      },
      {
        "astId": 13,
        "contract": "contracts/MouchDrops.sol:MouchDrops",
        "label": "lastRequestTime",
        "offset": 0,
        "slot": "3",
        "type": "t_mapping(t_address,t_uint256)"
      }
    ],
    "types": {
      "t_address": {
        "encoding": "inplace",
        "label": "address",
        "numberOfBytes": "20"
      },
      "t_mapping(t_address,t_uint256)": {
        "encoding": "mapping",
        "key": "t_address",
        "label": "mapping(address => uint256)",
        "numberOfBytes": "32",
        "value": "t_uint256"
      },
      "t_uint256": {
        "encoding": "inplace",
        "label": "uint256",
        "numberOfBytes": "32"
      }
    }
  }
}